:03000000020EE409
:0C0EE40078FFE4F6D8FD758123020F2B87
:030E4A0081000024
:10195D005391FE439201D29075BA01E4F5BBC2B822
:03196D00D2AF22D4
:03000300021A4896
:031A4800D20B328C
:030053000217BFD2
:1017BF00C0E0C0D075D000C00030A0077800741012
:1017CF00F2D20B30A10778007420F2D20BD000D0E8
:0417DF00D0D0E03254
:1016FD00439140D296439180D29743A180D2A7D2F5
:10170D00A653A1BF53A2BF5391FE439201D2905352
:08171D00A1DF43A220D2A522A6
:10185B00538EFE5389FC4389017EFC7418F58AEE86
:0A186B00F58CC28CD2A9D28CD2AF4A
:011875002250
:03002B00021A3E78
:051A3E00C2CFB28432AA
:050E4D00C109012200B3
:101517005391F343920CD293C29FD29ED29C53878E
:101527007FE4F5C9F5C8D2CDD2CC438E0475CAD9AC
:1015370075CCD975CBFF75CDFFD2CAD2ACD2AF224D
:0300230002129135
:10129100C0E0C083C082C0D075D000C000309904C6
:1012A100C299D209309824C2987822E6C3941F507B
:1012B10010E624E9F582E43400F583E599F006802F
:1012C10004782276007814E4F208F2D000D0D0D06D
:0612D10082D083D0E03260
:0B141A00E475F001120655120551FFA9
:10142500E47812F208F2C209C2998F99209919300D
:101435000903C2092243CF1012131CC37813E29487
:091445000A18E2940040E522229D
:0C19F5007892EFF21214257892E2FF22A3
:1018DC007888120665788812064C120551600778D4
:0718EC008812141A80EF229C
:1018910078851206657888EDF27888E2FF14F2EF18
:0A18A1006007788512141A80F02207
:1011EA000D0A202A2A2A2A2A2A2A2A2A25732A2A58
:1011FA002A2A2A2A2A2A2A2A200D0A0052747834EC
:10120A0031355F56332E30006275696C64284D6142
:10121A00792032332032303236202D2032333A359B
:10122A00373A333829200D0A00496E6974204F6B0A
:04123A0021200A0065
:1010DC001216FD1214E61219A712185B7FF47E018A
:1010EC0012106E1215177BFF7A127906788612068B
:1010FC00657A1179EA1201627BFF7A127912120178
:10110C00621219E812195D121A38121970EF600385
:10111C0012160143CF107BFF7A127933120162430E
:0D112C00CF1012131C43CF1012198380F254
:0A1A250077616B652075700D0A00F3
:100E52008C120000000000000000000000008E0163
:100E62000000000000000000000000000000821EE0
:040E72000000C10BB0
:03000B00020F7071
:100F7000C0E0C0F0C083C082C0D075D000C000C047
:0D0F800001C002C003C004C005C006C007C8
:100F8D007EFC7418F58AEEF58C7810E22401F218C7
:100F9D00E23400F27811E24401F2780FE2FE08E249
:100FAD00FF7C007D0A1205A9ED4C70227811E244F8
:100FBD0002F2780FE2FE08E2FFE4FCFD7B507AC3FB
:0E0FCD00F9F8D31206365006780FE4F208F257
:100FDB00D007D006D005D004D003D002D001D0006A
:0B0FEB00D0D0D082D083D0F0D0E03214
:10131C00E4FF7811E230E019E254FEF2EF25E0240C
:10132C0012F808E22401F218E23400F20FEFB406CE
:10133C00EB7811E230E11BE254FDF2E4FFEF25E023
:10134C002401F808E22401F218E23400F20FEFB4A1
:02135C0007EB9D
:01135E00226C
:0C1A0100EF4E6007EF1F70F81E80F5220A
:04106E00AB07AA061C
:10107200E4FC7D641205A9AC06AD07ED1DAE04705B
:10108200011C4E601A43CF10E47812F208F2C378C2
:1010920013E2946418E2940050E112131C80EF43AF
:1010A200CF107C007D64AF03AE021205A9E4781272
:1010B200F208F2C37813E29D18E29C500512131C49
:1010C20080F1AE02AF037C007D641205A9C3ED94EA
:0910D20032EC9400400343CF10FE
:0110DB0022F2
:10190A00EF64836009EF64C16004EFB4C2068FFE1E
:05191A00AF058FFF2264
:1018F3007D147FC112190A00000000438702000013
:0719030000000000000022BB
:10162C00D2A8C20B43CF101218F343CF10300BF2D9
:10163C007D907FC112190AC2A8C20BE47818F20877
:0A164C00F27BFF7A1A792502016291
:060E7600011E00011F0037
:061A3800E4F50DF50E229D
:0C1A0D00E4F50DF50E781EF6786AF22262
:1015A700EF24FD601114601824027020D29743A124
:1015B70040D2A6D2A722D29743A140C2A6D2A72241
:0D15C700D297D2A653A1BF53A2BFC2A72244
:10191F00781E7604D297D2A653A1BF53A2BFC2A7F7
:05192F00E6FF0216D4E2
:10193400781E7601C297D2A653A1BF53A2BFD2A7E5
:05194400E6FF0216D4CD
:10187600E4781EF6D297D2A653A1BF53A2BFD2A731
:0B188600E6FF1216D412162C021A0DF9
:091A2F003090037F00227F0122A8
:1013A100121A2FEF6021781F06E6B40F0FE50D200A
:1013B100E02C430D0118E67025021934781FE6D39D
:1013C100940F401A761022E50D30E00E781F16E6D4
:0F13D100700C18E6B40107021876E4781FF622B4
:10180300C37808E2946418E294004011E47818F273
:0E18130008F2781EE670063090031218762256
:1018AB00C3781BE2941418E29400400CE4781AF20B
:0918BB0008F21213A1120B3E22E7
:1019830043CF101218AB43CF1012180343CF1002EA
:021993000DAE97
:0E19DA002530327820000D0A00257300AA5532
:100E7C00011C00011900011D0001180086244154B9
:100E8C000D0A0000972A41542B46544D3D313936FA
:100E9C003637463441373646430D0A0000011B00F5
:030EAC00011A0028
:0512D70078831206659A
:1012DC00788B120665E4788EF2F2788EE2FFD37882
:1012EC008AE29F18E2940040217886E475F001129E
:1012FC000655120551FF788BE475F001120655EF77
:0F130C00120597788EE204F280D0788312064C97
:01131B0022AF
:1018C400E4FFFEEEC39D500F1205512FFF74012952
:0718D400F9E43AFA0E80EC82
:0118DB0022EA
:09135F0078201206657823EDF2F6
:10136800E4F50F7823E2FFE50FC39F50237820129E
:10137800064C850F8275830012056AFF7886E4F2B1
:1013880008EFF27BFF7A1979DA120162050F80D330
:091398007BFF7A1979E002016281
:100DAE007822E6FFD3940340787815E2940518E292
:100DBE009400406DE4F208F27B017A0079E97886BE
:100DCE001206657889E4F208EFF27A0079C91212F8
:100DDE00D79000C67402F07822E6FDA3E4F0A3EDEE
:100DEE00F024C9F582E43400F583E4F0F6FE7F20AA
:100DFE00FD7B017A0079E91206947B017A0079C6AF
:100E0E00120C237E007F207D007B017A0079C912AF
:100E1E0006947E007F037D007B017A0079C6120660
:100E2E0094C3780AE2943218E29400400CE4F2087B
:0C0E3E00F2781CE660031217E302182192
:0A0C230012055164026003020CEB9D
:100C2D009000011205FE7812A6F008F6E47810F691
:100C3D0008F67810E6FE08E6FFC3781396EE1896D0
:100C4D004003020CEB74C92FF58274003EF583E06E
:100C5D00B4A62D74CB2FF58274003EF583E0FD7C98
:100C6D00007814ECF608EDF62FFDEC3EFC74CC2D5F
:100C7D00F58274003CF583E0F47055121139805003
:100C8D007810E6FE08E6FF24C9F58274003EF58370
:100C9D00E0B42B3C74C92FF974003EFA7B0112139A
:100CAD00E07810E6FE08E624C9F974003EFA7B01EF
:100CBD00120A507810E6FE08E624C9F974003EFACF
:100CCD007B0178861206657BFF7A1979E312016242
:0E0CDD00781106E6186003020C3F06020C3F79
:010CEB0022E6
:1013E000120551642B701F90000112056AFF646F93
:1013F0006004EFB44F1090000212056AFF646B6046
:1014000008EF644B60037F002278197601781DE6AF
:0A1410006005E4F612174D7F01227B
:0D19E800E47819F67BFE7A0079240218DC01
:051A43007819E6FF2206
:10154700EFC394304009EFD3943950037F0122EF62
:10155700C394414009EFD3944650037F0122EFC360
:1015670094614009EFD3946650037F01227F0022E4
:050A5000788312066529
:100A5500120551642B702A788312064C90000112FE
:100A6500056AB44D1C90000212056AB4411390004A
:100A75000312056AB4430A90000412056A643A60D9
:100A8500037F0022E47816F67816E6FFC3940C502F
:100A95001F74052FF582E433F583788312064C1213
:100AA500056AFF121547EF7002FF2278160680D8F7
:100AB5007818E67002FF22E47816F67816E6FF2429
:100AC50005F582E433F583788312064C12056AFE38
:100AD50074312FF8EEF2781606E6B40CDE7BFE7A5A
:100AE50000792A1218DC788312064CE92405F9E40A
:100AF5003AFA788DE4F208740CF27F087E00120849
:040B050088EF6032E3
:100B090078867C007DFE7BFF7A1979E67E007F027C
:100B190012052BE47818F6780DF208F27BFE7A00BC
:100B29007986788DF2087402F2E4FFFE1208887F54
:020B3900012297
:020B3B007F0039
:010B3D002295
:101821007818E66018C3780EE294C818E294004074
:0E1831000CE47818F6781DF6780DF208F22215
:10174D009000A674B6F0A37420F0E4A3F0A374FF88
:10175D00F07B017A0079A67D041218917818760134
:07176D00E4780DF208F222FE
:101949007819E67007781D76010219E8E4781DF622
:0419590012174D22F2
:10165600AE039000A674B6F0A37410F0A37401F064
:10166600A3EFF0A3EDF0A3EEF0A374FFF07B017AF5
:0A1676000079A6AF06AD0702189137
:1016D4009000A674B6F0A37401F0A3F0A3EFF0A3F6
:1016E40074FFF07B017A0079A67D05121891E478E5
:0916F40009F208F2781C760122CB
:1014B400781EE6D3940140299000A674B6F0A37474
:1014C40002F0A314F0A3EFF0A374FFF07B017A0001
:1014D40079A67D05121891E47809F208F2781C7651
:0214E4000222E2
:10144E00781EE6D39401402A9000A674B6F0A374D9
:10145E0003F0A37401F0A3EFF0A374FFF07B017A05
:10146E000079A67D05121891E47809F208F2781C2D
:03147E00760322D0
:1017E300781CE624FE600914600624027011800050
:1017F3007B017A0079A67D05121891E4781CF62204
:041139007883EFF2D6
:10113D00E47816F608F67883E224CAF582E43400E2
:0D114D00F583E07816F624F0602914703A5E
:10115A007883E2FF24CCF582E43400F583E0FE08CC
:10116A00F2FD74CD2FF582E43400F583E07817F6AA
:06117A00FBE4FF02165623
:101180007883E224CCF582E43400F583E07817F626
:04119000E4781CF6ED
:011194002238
:100EAF00816A00A02842A000A20000A50000000057
:100EBF00A600A800A9A700A800A9AAAE0000AEAB83
:100ECF00AE0000AEAC00000000AD0000000081419C
:040EDF0000012300EB
:1014E600539AFE439B01539AFD439B02539AEF4343
:1014F6009B10539ADF439B2053A1FE43A20153A1A5
:10150600FD43A20253A1EF43A21053A1DF43A22041
:0115160022B2
:10123E00E47810F620800476018043208106781031
:10124E007602803A20A50678107603803120840637
:10125E0078107604802820A40678107605801F204A
:10126E00A00678107606801620A1067810760780E4
:10127E000D208506781076088004E47810F6781034
:02128E00E6FF79
:01129000223B
:100CEC00E4FF12123E786AE2146023146048146028
:100CFC007924036003020DA7EF7002FF227841EF05
:100D0C00F2E47803F208F2786A04F2020DAB78414F
:100D1C00E2FE6F6003020DA7C37804E2940618E2AA
:100D2C009400407BE4F208F2786A7402F2EE75F0FB
:100D3C0005A4243D80617841E2FE6F600DE4786A81
:100D4C00F2EE75F005A4243E804DC37804E294C8FD
:100D5C0018E294004049E4F208F2786A7403F278DD
:100D6C0041E275F005A4243F802D7841E2FE6F60CE
:100D7C000DE4786AF2EE75F005A424418019C3786D
:100D8C0004E2943218E294004015E4F208F278413F
:100D9C00E275F005A42440F8E2FF22E4786AF27FC1
:010DAC000046
:010DAD002223
:100FF600781EE6D394015006E47823F6FF22782380
:10100600E66010D3780CE294C818E294004004E439
:101016007823F6EF245A601314602A240270467867
:10102600237601E4780BF208F2803A7823E6B401DD
:1010360012D3780CE294C818E294005024782376F0
:10104600028022801C7823E6B40216D3780CE29440
:10105600C818E29400500AE47823F61219497F0171
:0810660022E47823F67F00224A
:100B3E00E47883F2120CEC7883EFF27003020C224D
:100B4E00E2FF120FF6EF6003020C227883E2120628
:100B5E006E0B84A00B90A50BA6A60BB9A70BCCA869
:100B6E000BD8A90BE5AA0BF1AB0BFDAC0C09AD0C28
:100B7E0015AE00000C22781EE6B4010302191F0206
:100B8E001934781EE6D394015003020C2276027FAC
:100B9E00021215A7E4FF803C781EE6D39401407440
:100BAE0076037F031215A77F018029781EE6D39462
:100BBE0001406176047F041215A77F028016781E0D
:100BCE00E6D39401404E7F03800A781EE6D394014B
:100BDE0040427F040214B4781EE6D3940140357F60
:100BEE0001802E781EE6D3940140297F0280227860
:100BFE001EE6D39401401D7F038016781EE6D39423
:100C0E000140117F04800A781EE6D394014005E46A
:040C1E00FF12144E5F
:010C220022AF
:1019A700539AF7439B08539AFB439B04D282D283F3
:0119B700220D
:1019950000D2820000D2830000C2820000C2830010
:0219A50000221E
:0C1A190000C2820000D2830000D28222B2
:1019B800C2820000D283000000000000C283000041
:0119C80022FC
:1019C900D2820000D283000000000000C283000020
:0119D90022EB
:10177400C283D2820000D2830000E4FE2082047D72
:101784000180027D00AF05EF70050EEEB4FAED00A6
:0517940000C28300000B
:01179900222D
:0714810012199578A2E2FFA9
:101488007E08801DAD061EED601EEF30E704D28297
:101498008002C282EF25E0FF0000D2830000000036
:0B14A8000000C283000080DC121774FB
:0114B3002216
:101680007F08E4FED2820000AD071FED6018EE2552
:10169000E0FE3082034401FED2830000000000001F
:0916A000C283000080E200AF06E5
:0116A900221E
:10179A0078A2120665AC05AF041CEF601578A2E4C6
:1017AA0075F001120655120551FF121488EF70E701
:0517BA00FF227F012267
:1015D400788D120665AC05AF041CEF601D121680F1
:1015E400788DE475F001120655EF120597EC70053D
:0D15F4001219C980E21219B880DD7F0122B2
:0A119500E4F2EF54FEFF7C007B0142
:10119F0078A2EFF208ECF208EDF208EBF2121481EC
:1011AF00EF700E7F01FE12106E121481EF7002802D
:1011BF002278A308E2FF121488EF7002801578A539
:1011CF00E2B4011412199578A2E24401FF121488B7
:0B11DF00EF7005121A19FF227F012299
:04183F00786BEBF2E5
:10184300E4FCE4FB12119FAC07786BE2FF121488EF
:07185300EC5FFC121A19FF03
:01185A00226B
:05172500786C1206655E
:10172A00786F121195786FEFF2E2FEC006786C12AC
:10173A00064C7D011215D4D0E05F786FF2121A19A7
:02174A00E2FFBC
:01174C00227A
:05157700789D120665DD
:10157C00E478A1F27C00E4FB12119F78A1EFF2E277
:10158C00FEC006789D12064C78A0E2FD12179AD088
:0A159C00E05F78A1F2121A19E2FFD5
:0115A6002222
:0516AA007888120665BE
:1016AF00788C121195788CEFF2E2FEC006788812D2
:1016BF00064C788BE2FD1215D4D0E05F788CF212D5
:0416CF001A19E2FF03
:0116D30022F4
:0706C0007870EEF208EFF282
:1006C700E4787FF2081206657875E2FC08E2FD4CD3
:1006D70070037F01227870E2FE08E2FFC3EE940107
:1006E700500FEF2DFFEE3CFED3EF9400EE94014048
:1006F700037F00227E007871E25407FF787BEEF2D9
:1007070008EFF27875E2FC08E2FD2FFBEE3CFAEB0E
:10071700AE027803CEC313CE13D8F9FF7877EEF283
:1007270008EFF2D39400EE9400401B18E2FE08E2B3
:100737007803C333CE33CED8F9FFC3EB9F787AF271
:10074700EA9E18F280077879ECF208EDF27878E201
:10075700700218E2700D787008E2FD788012064C7E
:10076700020879C37878E2940118E29400405E7831
:100777007008E2FD788012064C787B08E2FF740867
:100787009F788BF27FA01216AA787FEFF27003E2B0
:10079700FF227F0A7E0012106E7871E22408FF188C
:1007A700E23400FE787BE2FC08E2FDC3EF9D78713E
:1007B700F2EE9C18F2788012064CE92408F9E43A24
:1007C700FAC3E99DF9EA9CFA7880120665E4787D18
:1007D700F208F27878E224FFFF18E234FFFEC378CC
:1007E7007EE29F18E29E504DE2FE08E2FF75F00898
:1007F700A4FD787008E22DFDEF7803C333CE33CE26
:10080700D8F9FF788012064CE92FF9EA3EFA788B7F
:100817007408F27FA01216AA787FEFF27003E2FF46
:10082700227F0A7E0012106E787EE22401F218E21F
:100837003400F2809ED3787AE2940018E294004064
:100847003D7877E2FE08E2FF1475F008A4FD7870A2
:1008570008E22DFDEF24FFFFEE34FFFEEF7803C320
:1008670033CE33CED8F9FF788012064CE92FF9EA58
:100877003EFA787908E2788BF27FA00216AA7F0108
:01088700224E
:070888007888EEF208EFF2A0
:10088F00E47897F208120665788DE2FC08E2FD4CD9
:10089F0070037F01227888E2FE08E2FFC3EE940125
:1008AF00500FEF2DFFEE3CFED3EF9400EE9401407E
:1008BF00037F00227E007889E25407FF7895EEF2DD
:1008CF0008EFF2788DE2FC08E2FD2FFBEE3CFAEB2D
:1008DF00AE027803CEC313CE13D8F9FF788FEEF2A2
:1008EF0008EFF2D39400EE9400401B18E2FE08E2EA
:1008FF007803C333CE33CED8F9FFC3EB9F7892F290
:10090F00EA9E18F280077891ECF208EDF27890E207
:10091F00700218E2700D788808E2FD789812064C84
:10092F00020A41C37890E2940118E29400405E7885
:10093F008808E2FD789812064C789508E2FF740853
:10094F009F78A0F27FA01215777897EFF27003E2ED
:10095F00FF227889E22408FF18E23400FE7895E23E
:10096F00FC08E2FDC3EF9D7889F2EE9C18F27898AF
:10097F0012064CE92408F9E43AFAC3E99DF9EA9C16
:10098F00FA78981206657F0A7E0012106EE478934B
:10099F00F208F27890E224FFFF18E234FFFEC378EA
:1009AF0094E29F18E29E504DE2FE08E2FF75F008B8
:1009BF00A4FD788808E22DFDEF7803C333CE33CE44
:1009CF00D8F9FF789812064CE92FF9EA3EFA78A089
:1009DF007408F27FA01215777897EFF27003E2FF99
:1009EF00227F0A7E0012106E7894E22401F218E240
:1009FF003400F2809ED37892E2940018E294004083
:100A0F003D788FE2FE08E2FF1475F008A4FD7888A8
:100A1F0008E22DFDEF24FFFFEE34FFFEEF7803C356
:100A2F0033CE33CED8F9FF789812064CE92FF9EA76
:100A3F003EFA789108E278A0F27FA00215777F0145
:010A4F002284
:10197000E47BFE7A007983788B04F2E4FD7FA01289
:0219800016AAA5
:011982002242
:10160100E47885F27BFE7A007983788B7402F2E4C8
:10161100FD7FA01216AA7885EFF27883E2B4AA08BA
:0A16210008E2B455037F01227F00A8
:01162B00229C
:100EF0000210DCE493A3F8E493A34003F68001F22C
:100F000008DFF48029E493A3F85407240CC8C33302
:100F1000C4540F4420C8834004F456800146F6DFD1
:100F2000E4800B0102040810204080900E4AE47E09
:100F3000019360BCA3FF543F30E509541FFEE493C6
:100F4000A360010ECF54C025E060A840B8E493A38D
:100F5000FAE493A3F8E493A3C8C582C8CAC583CAB8
:100F6000F0A3C8C582C8CAC583CADFE9DEE780BE70
:010EE300000E
:10045B00E709F608DFFA8046E709F208DFFA803E83
:10046B0088828C83E709F0A3DFFA8032E309F60870
:10047B00DFFA8078E309F208DFFA807088828C83D8
:10048B00E309F0A3DFFA806489828A83E0A3F6088C
:10049B00DFFA805889828A83E0A3F208DFFA804C66
:1004AB0080D280FA80C680D4806980F2803380103D
:1004BB0080A680EA809A80A880DA80E280CA8033A6
:1004CB0089828A83ECFAE493A3C8C582C8CCC5831E
:1004DB00CCF0A3C8C582C8CCC583CCDFE9DEE780EE
:1004EB000D89828A83E493A3F608DFF9ECFAA9F06D
:1004FB00EDFB2289828A83ECFAE0A3C8C582C8CCC3
:10050B00C583CCF0A3C8C582C8CCC583CCDFEADEDB
:10051B00E880DB89828A83E493A3F208DFF980CC3D
:10052B0088F0EF60010E4E60C388F0ED2402B40436
:10053B000050B9F582EB2402B4040050AF232345DD
:06054B0082239004AB7353
:10055100BB010689828A83E0225002E722BBFE02A8
:09056100E32289828A83E49322DB
:10056A00BB010CE58229F582E5833AF583E0225046
:10057A0006E92582F8E622BBFE06E92582F8E22290
:0D058A00E58229F582E5833AF583E49322AA
:10059700BB010689828A83F0225002F722BBFE0143
:0205A700F3223D
:1005A900BC000BBE0029EF8DF084FFADF022E4CC36
:1005B900F875F008EF2FFFEE33FEEC33FCEE9DECFF
:1005C900984005FCEE9DFE0FD5F0E9E4CEFD22ED45
:1005D900F8F5F0EE8420D21CFEADF075F008EF2F8F
:1005E900FFED33FD4007985006D5F0F222C398FD80
:0505F9000FD5F0EA221D
:1005FE00BB0110E58229F582E5833AF583E0F5F03B
:10060E00A3E0225009E92582F886F008E622BBFE17
:10061E000AE92582F8E2F5F008E222E5832AF5835D
:08062E00E993F5F0A3E9932222
:10063600EB9FF5F0EA9E42F0E99D42F0EC6480C83B
:0606460064809845F022DB
:09064C00E2FB08E2FA08E2F922DF
:10065500FAE2FB0808E2F925F0F218E2CA3AF222BA
:09066500EBF208EAF208E9F222C6
:10066E00D083D082F8E4937012740193700DA3A31B
:10067E0093F8740193F5828883E47374029368602F
:06068E00EFA3A3A380DF2F
:10010000E5082486F8E2050822788330070278861D
:10011000E475F0011206550205512000EB7F2ED246
:10012000008018EF540F2490D43440D4FF30040BD7
:10013000EF24BFB41A0050032461FFE509600215E3
:1001400009050CE50C7002050B30070D7883E4758A
:10015000F001120655EF0205970219F57403D20754
:100160008003E4C207F5087883120665E4F509F513
:100170000BF50CE50960077F2012013B80F5750A3D
:10018000FFC201C200C202C203C205C206C20812F7
:100190000109FF700D3007057F0012014CAF0CAE56
:1001A0000B22B4255FC2D5C204120109FF24D0B4CA
:1001B0000A00501A75F00A780930D50508B6FF0113
:1001C00006C6A426F620D5047002D20380D924CF17
:1001D000B41A00EF5004C2E5D20402034BD20180EE
:1001E000C6D20080C0D20280BCD2D580BAD20580EF
:1001F000B47F2012013B2002077401B5090040F1D1
:10020000120100FF12013B020173D208D206809551
:10021000120100FB120100FA120100F94A4B7006AC
:10022000791C7A047BFF20022EE509602A7E008E6D
:100230008275830012056A60060EEE650A70F0C2D0
:10024000D5EBC0E0EAC0E0E9C0E0EE120392D0E0F6
:10025000F9D0E0FAD0E0FB120551FF60AAEBC0E054
:10026000EAC0E0E9C0E012013BD0E02401F9D0E0AF
:100270003400FAD0E0FBE50A0460DCD50AD98087B7
:100280007BFF7A03798ED202809C791080027908F4
:10029000C206C2088008D2D5790A8004790AC2D57C
:1002A000E50A047002F50AE4FAFDFEFF120100FC03
:1002B0007B08200113120100FD7B1030000A12019F
:1002C00000FE120100FF7B20EC3382D592D5501343
:1002D000C3E43000069FFFE49EFEE42001039DFD81
:1002E000E49CFCE4CBF8C201EC700CCFCECDCCE8A2
:1002F00024F8F870F38017C3EF33FFEE33FEED33CD
:10030000FDEC33FCEB33FB994002FB0FD8E9EB30FB
:100310000105F8D0E0C448B201C0E00AEC4D4E4FF0
:1003200078207B0070C2EAB50A0040BCC0E012032E
:1003300094D0F0D0E0200104C4C0E0C4B201C0F009
:10034000120124D0F0D5F0EB02017312066E0210F8
:1003500053028A5801E14C01DD42028E4F0296445D
:1003600002964901F643029C5502804602804502EE
:01037000800C
:1003710047043C5001E52D01E92E020C2B01ED2330
:10038100020A2004252A01A548000002043F3F3F3C
:1003910000790AA2D5200314300509B9100204041A
:1003A100B9080104A2D52006025001042002689276
:1003B10002B509005034C0E07F203003197F30A21C
:1003C1000272067205500F1203EBC202C206C20589
:1003D100C2087F30800F300503E9C0E012013B30D5
:1003E1000503D0E0F9D0E0B509CC3005177F30B96D
:1003F100100C12013B7F583004077F788003B90845
:100401000312013B3002057F2D02013B7F202008B2
:10041100F87F2B2006F322920280CF286E756C6C38
:100421002900D2011201003001F8C201780930D54A
:100431000108F60201A52D50434958120100240379
:10044100B405004001E49004379312012C743A1270
:0A045100012CD20375090402028A8F
:10069400EF4E6012EF60010EEDBB010B89828A837D
:1006A400F0A3DFFCDEFA2289F05007F709DFFCA98A
:0C06B400F022BBFEFCF309DFFCA9F022E1
:00000001FF
